:100000000C942A000C94550D0C94820D0C94920DB6
:100010000C9447000C9447000C9447000C94470044
:100020000C9447000C9447000C9447000C94EF0983
:100030000C9447000C9447000C9447000C94470024
:100040000C9447000C9447000C9447000C94470014
:100050000C94470011241FBECFE5D8E0DEBFCDBF12
:1000600011E0A0E6B0E0ECEBF4E602C005900D92E2
:10007000A43FB107D9F712E0A4EFB1E001C01D928F
:10008000A930B107E1F70E94AE240C945C320C94C5
:100090000000EF92FF920F931F937B018C0120E0F1
:1000A00030E040E05FE40E94250488238CF0C80122
:1000B000B70120E030E040E05FE40E94C1010E940F
:1000C000E3049B01AC01205030404040504806C042
:1000D000C801B7010E94E3049B01AC01B901CA0148
:1000E0001F910F91FF90EF900895A0E0B0E0EBE733
:1000F000F0E00C942532DC012B01FA019C91923046
:1001000008F439C1EB018881823008F433C194309E
:1001100069F4843009F02FC111969C91119789815F
:10012000981709F428C1ABEDB0E025C1843009F47B
:1001300021C18230A9F4923009F01DC19A01AD01AC
:1001400088E0EA010990AE01E90109929E0181501F
:10015000C1F7E201898111969C918923818308C1AD
:10016000923009F407C112962D903C901397EB0141
:100170008A819B811496AD90BD90CD90DC901797AD
:10018000EC80FD800E811F819101281B390BB90184
:1001900037FF04C066277727621B730B6032710537
:1001A0000CF061C0121613066CF537014801062EDB
:1001B00004C096948794779467940A94D2F721E0C8
:1001C00030E040E050E004C0220F331F441F551FB1
:1001D0006A95D2F721503040404050402E213F21B7
:1001E00040235123211531054105510521F021E01E
:1001F00030E040E050E079018A01E628F72808293C
:1002000019293CC0232BD1F1260E371E350146019A
:10021000062E04C096948794779467940A94D2F734
:1002200021E030E040E050E004C0220F331F441FC3
:10023000551F6A95D2F721503040404050402A2146
:100240003B214C215D21211531054105510521F04E
:1002500021E030E040E050E059016A01A628B728CB
:10026000C828D9280BC0821593052CF01C01AA249C
:10027000BB24650103C0EE24FF24870111969C91E5
:10028000D20111968C91981709F445C0992339F041
:10029000A80197012A193B094C095D0906C0A6016E
:1002A00095012E193F09400B510B57FD08C01182D3
:1002B0003382228224833583468357831DC081E0A5
:1002C00081833382228288279927DC01821B930B4A
:1002D000A40BB50B84839583A683B7830DC0220F2F
:1002E000331F441F551F24833583468357838281E0
:1002F000938101979383828324813581468157813D
:10030000DA01C9010197A109B1098F5F9F4FAF4F72
:10031000BF4328F30BC0918333822282EA0CFB1C7B
:100320000C1D1D1DE482F5820683178383E0808304
:10033000248135814681578157FF1AC0C901AA27F8
:1003400097FDA095BA2F81709070A070B0705695EF
:10035000479537952795822B932BA42BB52B848318
:100360009583A683B7838281938101969383828349
:10037000DF0101C0D201CD01CDB7DEB7E2E10C94BF
:100380004132A0E2B0E0E7ECF1E00C943132698355
:100390007A838B839C832D833E834F835887E9E048
:1003A000EE2EF12CEC0EFD1ECE010196B7010E943F
:1003B000D4068E010F5E1F4FCE010596B8010E9434
:1003C000D4068A8991E089278A8BC701B801AE01DA
:1003D000475E5F4F0E9475000E94FF05A096E6E011
:1003E0000C944D32A0E2B0E0E8EFF1E00C94313231
:1003F00069837A838B839C832D833E834F835887C5
:10040000F9E0EF2EF12CEC0EFD1ECE010196B701A6
:100410000E94D4068E010F5E1F4FCE010596B801D3
:100420000E94D406C701B801AE01475E5F4F0E942B
:1004300075000E94FF05A096E6E00C944D32A0E204
:10044000B0E0E5E2F2E00C94253269837A838B8395
:100450009C832D833E834F835887CE010196BE0136
:10046000675F7F4F0E94D406CE010596BE016F5E86
:100470007F4F0E94D4069985923088F08989823016
:10048000C8F0943019F4823051F404C0843029F457
:10049000923081F48BED90E0C6C0923049F420E0B8
:1004A0009A858A89981321E02A87CE010996BBC0D4
:1004B000823049F420E09A858A89981321E02A8BBA
:1004C000CE014196B0C02D843E844F8458886D88FB
:1004D0007E888F88988CEE24FF248701AA24BB2471
:1004E000650140E050E060E070E0E0E0F0E0C10174
:1004F00081709070892BE9F0E60CF71C081D191D1E
:100500009A01AB012A0D3B1D4C1D5D1D80E090E062
:10051000A0E0B0E0E614F7040805190520F481E036
:1005200090E0A0E0B0E0BA01A901480F591F6A1F8E
:100530007B1FAA0CBB1CCC1CDD1C97FE08C081E0F5
:1005400090E0A0E0B0E0A82AB92ACA2ADB2A3196B6
:10055000E032F10549F0660C771C881C991C569412
:10056000479437942794C3CFFA85EA892B893C892D
:100570008B859C85280F391F2E5F3F4F17C0CA01FE
:1005800081709070892B61F016950795F794E79428
:1005900080E090E0A0E0B0E8E82AF92A0A2B1B2BC3
:1005A00076956795579547952F5F3F4F77FDE7CF36
:1005B0000CC0440F551F661F771F17FD4160EE0CDE
:1005C000FF1C001F111F21503040403090E05907A0
:1005D00090E0690790E4790760F32B8F3C8FDB0193
:1005E000CA018F779070A070B07080349105A1051A
:1005F000B10561F447FD0AC0E114F10401051105DC
:1006000029F0405C5F4F6F4F7F4F40781A8EFE1786
:1006100011F081E08A8F4D8F5E8F6F8F78A383E01A
:10062000898FCE0149960E94FF05A096E2E10C94C5
:100630004132A8E1B0E0EFE1F3E00C942D326983A0
:100640007A838B839C832D833E834F835887B9E0C5
:10065000EB2EF12CEC0EFD1ECE010196B7010E948F
:10066000D4068E010F5E1F4FCE010596B8010E9481
:10067000D4062985223008F47EC03989323010F43E
:10068000B8017CC08A859A8989278A87243011F02D
:10069000223031F4231709F06EC06BED70E06EC0AC
:1006A000343039F41D861E861F86188A1C861B86E8
:1006B00004C0323021F484E08987B7015FC02B8504
:1006C0003C858B899C89281B390B3C872B87ED84C3
:1006D000FE840F851889AD88BE88CF88D88CEA142F
:1006E000FB040C051D0540F4EE0CFF1C001F111F40
:1006F000215030403C872B8720E030E040E050E044
:1007000080E090E0A0E0B0E460E070E0EA14FB0478
:100710000C051D0540F0282B392B4A2B5B2BEA18C2
:10072000FB080C091D09B695A79597958795EE0CC2
:10073000FF1C001F111F6F5F7F4F6F31710531F775
:10074000DA01C9018F779070A070B0708034910584
:10075000A105B10561F427FD0AC0E114F10401050A
:10076000110529F0205C3F4F4F4F5F4F20782D87B8
:100770003E874F87588BBE01675F7F4FCB010E943A
:10078000FF056896EAE00C944932A8E1B0E0EBEC92
:10079000F3E00C94313269837A838B839C832D83BD
:1007A0003E834F83588789E0E82EF12CEC0EFD1E26
:1007B000CE010196B7010E94D4068E010F5E1F4F35
:1007C000CE010596B8010E94D4068985823040F09A
:1007D0008989823028F0C701B8010E944C0701C006
:1007E00081E06896E6E00C944D32A8E1B0E0EBEFD2
:1007F000F3E00C94313269837A838B839C832D835D
:100800003E834F83588789E0E82EF12CEC0EFD1EC5
:10081000CE010196B7010E94D4068E010F5E1F4FD4
:10082000CE010596B8010E94D4068985823040F039
:100830008989823028F0C701B8010E944C0701C0A5
:100840008FEF6896E6E00C944D32A8E1B0E0EBE261
:10085000F4E00C94313269837A838B839C832D83FB
:100860003E834F83588789E0E82EF12CEC0EFD1E65
:10087000CE010196B7010E94D4068E010F5E1F4F74
:10088000CE010596B8010E94D4068985823040F0D9
:100890008989823028F0C701B8010E944C0701C045
:1008A0008FEF6896E6E00C944D32A8E1B0E0EBE5FE
:1008B000F4E00C94313269837A838B839C832D839B
:1008C0003E834F83588789E0E82EF12CEC0EFD1E05
:1008D000CE010196B7010E94D4068E010F5E1F4F14
:1008E000CE010596B8010E94D4068985823040F079
:1008F0008989823028F0C701B8010E944C0701C0E5
:1009000081E06896E6E00C944D32A8E0B0E0EBE8B8
:10091000F4E00C942E329B01AC0183E08983DA0170
:10092000C9018827B7FD83959927AA27BB27B82E29
:10093000211531054105510519F482E089833AC03A
:100940008823A9F0203080E0380780E0480780E85D
:10095000580729F460E070E080E09FEC30C0EE249E
:10096000FF248701E21AF30A040B150B02C0790178
:100970008A018EE1C82ED12CDC82CB82ED82FE82F0
:100980000F831887C801B7010E94B0050197181698
:10099000190684F4082E04C0EE0CFF1C001F111F62
:1009A0000A94D2F7ED82FE820F831887C81AD90AFB
:1009B000DC82CB82BA82CE0101960E94FF05289686
:1009C000E9E00C944A32ACE0B0E0E9EEF4E00C94DB
:1009D000353269837A838B839C83CE010196BE0175
:1009E0006B5F7F4F0E94D4068D81823061F182302F
:1009F00050F1843021F48E81882351F12EC02F8153
:100A0000388537FD20C06E812F3131051CF06623FB
:100A1000F9F023C08EE190E0821B930B29853A8583
:100A20004B855C8504C056954795379527958A95E3
:100A3000D2F76623B1F050954095309521953F4F00
:100A40004F4F5F4F0EC020E030E040E050E009C063
:100A50002FEF3FEF4FEF5FE704C020E030E040E0D2
:100A600050E8B901CA012C96E2E00C945132A8E09A
:100A7000B0E0EDE3F5E00C942D327B018C016115C3
:100A800071058105910519F482E0898360C083E0D6
:100A900089838EE1C82ED12CDC82CB82ED82FE824E
:100AA0000F831887C801B7010E94B005FC01319778
:100AB000F7FF3BC0222733272E1B3F0B570168014E
:100AC000022E04C0D694C794B794A7940A94D2F780
:100AD00040E050E060E070E081E090E0A0E0B0E055
:100AE00004C0880F991FAA1FBB1F2A95D2F7019730
:100AF000A109B1098E219F21A023B1230097A1054F
:100B0000B10521F041E050E060E070E04A295B2946
:100B10006C297D294D835E836F8378878EE190E019
:100B20008E1B9F0B9C838B8312C0309781F00E2EFF
:100B300004C0EE0CFF1C001F111F0A94D2F7ED82B7
:100B4000FE820F831887CE1ADF0ADC82CB821A82DC
:100B5000CE0101960E94FF052896EAE00C944932E6
:100B6000EF92FF920F931F937B018C0180E0E816B8
:100B700080E0F80681E0080780E0180788F48FEF2E
:100B8000E816F1040105110531F028F088E090E045
:100B9000A0E0B0E017C080E090E0A0E0B0E012C0BC
:100BA00080E0E81680E0F80680E0080781E018079A
:100BB00028F088E190E0A0E0B0E004C080E190E09F
:100BC000A0E0B0E020E230E040E050E0281B390B2C
:100BD0004A0B5B0B04C016950795F794E7948A952A
:100BE000D2F7F701ED51FF4F8081281B31094109F0
:100BF0005109C9011F910F91FF90EF900895DF9265
:100C0000EF92FF920F931F93FC01E480F580068121
:100C10001781D1808081823048F480E090E0A0E1AB
:100C2000B0E0E82AF92A0A2B1B2BA5C0843009F46E
:100C30009FC0823021F4EE24FF24870105C0E11417
:100C4000F1040105110519F4E0E0F0E096C06281BD
:100C500073819FEF623879070CF05BC022E83FEFA9
:100C6000261B370B2A3131052CF020E030E040E024
:100C700050E02AC0B801A701022E04C076956795FE
:100C8000579547950A94D2F781E090E0A0E0B0E054
:100C900004C0880F991FAA1FBB1F2A95D2F701977E
:100CA000A109B1098E219F21A023B1230097A1059D
:100CB000B10521F081E090E0A0E0B0E09A01AB0145
:100CC000282B392B4A2B5B2BDA01C9018F779070C7
:100CD000A070B07080349105A105B10539F427FFEB
:100CE00009C0205C3F4F4F4F5F4F04C0215C3F4F16
:100CF0004F4F5F4FE0E0F0E02030A0E03A07A0E087
:100D00004A07A0E45A0710F0E1E0F0E079018A0117
:100D100027C06038710564F5FB01E158FF4FD80129
:100D2000C7018F779070A070B07080349105A105D5
:100D3000B10539F4E7FE0DC080E490E0A0E0B0E03A
:100D400004C08FE390E0A0E0B0E0E80EF91E0A1FB7
:100D50001B1F17FF05C016950795F794E79431966A
:100D600087E016950795F794E7948A95D1F705C023
:100D7000EE24FF248701EFEFF0E06E2F67956627E2
:100D80006795902F9F77D794DD24D7948E2F8695E3
:100D9000492F462B582F5D29B701CA011F910F918A
:100DA000FF90EF90DF900895FC01DB0140815181BD
:100DB0002281622F6F7770E0221F2227221F9381EA
:100DC000892F880F822B282F30E0991F9927991F90
:100DD00011969C93119721153105A9F541155105DF
:100DE0006105710511F482E037C082E89FEF139628
:100DF0009C938E9312979A01AB0167E0220F331FE9
:100E0000441F551F6A95D1F783E08C930DC0220FC4
:100E1000331F441F551F12968D919C911397019774
:100E200013969C938E931297203080E0380780E0D1
:100E3000480780E4580758F314962D933D934D933B
:100E40005C93179708952F3F310579F441155105AB
:100E50006105710519F484E08C93089564FF03C063
:100E600081E08C9312C01C9210C02F573040139613
:100E70003C932E93129783E08C9387E0440F551F89
:100E8000661F771F8A95D1F7706414964D935D9312
:100E90006D937C93179708951F93DC01FB019C9140
:100EA000923008F447C08081823008F443C0943007
:100EB00051F411961C91843099F58181682F70E06E
:100EC000611B71093FC0843021F0923031F48230CF
:100ED000B9F18181882389F12DC011961C91119758
:100EE0008230F1F081811817D9F412962D913C913E
:100EF0001397828193818217930794F028173907FB
:100F0000BCF014968D919D910D90BC91A02D2481E3
:100F1000358146815781281739074A075B0718F43E
:100F2000112341F00AC082179307A407B50740F4C4
:100F3000112319F061E070E005C06FEF7FEF02C090
:100F400060E070E0CB011F910895DF93CF93CDB7A0
:100F5000DEB7A1E4B0E0E1E4F0E0808188608C934A
:100F6000A1E4B0E0E1E4F0E0808181608C93A1E451
:100F7000B0E0E1E4F0E0808182608C93A1E4B0E035
:100F8000E1E4F0E0808184608C93CF91DF9108955B
:100F9000DF93CF93CDB7DEB7A895CF91DF910895BA
:100FA000DF93CF930F92CDB7DEB780E8898388E2D5
:100FB00060E00E94A20D88E261E00E94A20DAAE218
:100FC000B0E0EAE2F0E0808188608C93AAE2B0E0D1
:100FD000EAE2F0E0808180618C93AAE2B0E0EAE28C
:100FE000F0E080818B7F8C93898184608983898103
:100FF0008260898389818F7B898389818F7E8983C0
:1010000089818F7D89838981877F8983E0E4F0E00E
:1010100089818083E9E2F0E087E68083AAE2B0E09C
:10102000EAE2F0E0808188608C93AAE2B0E0EAE234
:10103000F0E0808180618C930F90CF91DF910895D3
:10104000DF93CF9300D000D00F92CDB7DEB78D8362
:1010500019821A821B821C82ECE2F0E08D8180836F
:1010600018C089819A81AB81BC810196A11DB11DF7
:1010700089839A83AB83BC83EBE2F0E08081829525
:10108000869586958370882F90E081709070882374
:1010900061F489819A81AB81BC81803824E8920710
:1010A0002EE1A20720E0B207E0F20F900F900F9020
:1010B0000F900F90CF91DF910895DF93CF9300D0E1
:1010C00000D0CDB7DEB719821A821B821C8213C0F2
:1010D00089819A81AB81BC810196A11DB11D898353
:1010E0009A83AB83BC83EBE2F0E08081881F882782
:1010F000881F813061F089819A81AB81BC81803801
:1011000024E892072EE1A20720E0B20708F3ECE200
:10111000F0E080810F900F900F900F90CF91DF91B2
:101120000895DF93CF930F92CDB7DEB7898389817E
:10113000882F90E00097A9F4A3E5B0E0E3E5F0E0A4
:1011400080818F7B8C93A3E5B0E0E3E5F0E08081C4
:10115000877F8C93A9E5B0E0E9E5F0E080818160CC
:101160008C930F90CF91DF910895DF93CF93CDB7FC
:10117000DEB72E970FB6F894DEBF0FBECDBF8A87BD
:101180004B875C876D877E8780E490E0A0E0B0E0CD
:101190008E839F83A887B9878B859C85AD85BE8507
:1011A00028EE33E040E050E0BC01CD010E949631D2
:1011B000DC01CB012E813F8148855985BC01CD01E1
:1011C0000E94D431DA01C9018A839B83AC83BD8339
:1011D0008FEF89838A85882F90E0009781F58A8137
:1011E0009B81AC81BD81892F9A2FAB2FBB27809328
:1011F000F4019093F501A093F601B093F7018A8171
:101200008093F8018091F8018823C9F0E2E5F0E0CD
:101210008091F801819580838091F4019091F5018E
:10122000A091F601B091F7010196A11DB11D809327
:10123000F4019093F501A093F601B093F7012E9677
:101240000FB6F894DEBF0FBECDBFCF91DF910895EA
:10125000DF93CF9300D00F92CDB7DEB7898389811A
:10126000282F30E03B832A838A819B81009731F0CD
:101270002A813B8121303105B9F02BC0A3E5B0E0D4
:10128000E3E5F0E0808181608C93A3E5B0E0E3E5E5
:10129000F0E080818D7F8C93A3E5B0E0E3E5F0E0A2
:1012A000808184608C9315C0AEE4B0E0EEE4F0E0A1
:1012B00080818E7F8C93AEE4B0E0EEE4F0E080813C
:1012C0008D7F8C93AEE4B0E0EEE4F0E0808184604A
:1012D0008C930F900F900F90CF91DF910895DF9333
:1012E000CF9300D00F92CDB7DEB789838981282FA5
:1012F00030E03B832A838A819B81009731F02A81E9
:101300003B8121303105B9F02BC0A3E5B0E0E3E526
:10131000F0E080818E7F8C93A3E5B0E0E3E5F0E020
:1013200080818D7F8C93A3E5B0E0E3E5F0E08081E0
:101330008B7F8C9315C0AEE4B0E0EEE4F0E08081EA
:101340008E7F8C93AEE4B0E0EEE4F0E080818D7FA0
:101350008C93AEE4B0E0EEE4F0E080818B7F8C9380
:101360000F900F900F90CF91DF910895DF93CF935F
:1013700000D000D00F92CDB7DEB789837B836A831C
:101380008981282F30E03D832C838C819D818130A1
:10139000910581F02C813D812230310591F08C81C5
:1013A0009D810097A1F48A819B819093060280938E
:1013B00005020DC08A819B819093040280930302F1
:1013C00006C08A819B8190930202809301020F9054
:1013D0000F900F900F900F90CF91DF9108951F9273
:1013E0000F920FB60F9211242F933F934F935F9359
:1013F0006F937F938F939F93AF93BF93EF93FF93DD
:10140000DF93CF93CDB7DEB78091FD019091FE01C0
:10141000A091FF01B09100020196A11DB11D809322
:10142000FD019093FE01A093FF01B0930002209173
:10143000FD013091FE014091FF0150910002809129
:10144000F4019091F501A091F601B091F7012817F0
:1014500039074A075B0799F4E0910502F09106020B
:101460000995E2E5F0E08091F80181958083109282
:10147000FD011092FE011092FF0110920002CF9127
:10148000DF91FF91EF91BF91AF919F918F917F91EC
:101490006F915F914F913F912F910F900FBE0F90E1
:1014A0001F901895DF93CF9300D00F92CDB7DEB782
:1014B00089838981282F30E03B832A838A819B811D
:1014C000009731F02A813B812130310511F14FC065
:1014D00087E161E00E94A20DA3E5B0E0E3E5F0E062
:1014E000808180648C93A3E5B0E0E3E5F0E0808147
:1014F00088608C93A3E5B0E0E3E5F0E08081806153
:101500008C93A3E5B0E0E3E5F0E0808180628C930A
:101510002EC08DE261E00E94A20DAFE4B0E0EFE4E6
:10152000F0E080818E7F8C93AFE4B0E0EFE4F0E0F8
:10153000808182608C93AEE4B0E0EEE4F0E08081E4
:1015400088608C93AEE4B0E0EEE4F0E080818061EE
:101550008C93AFE4B0E0EFE4F0E080818F7B8C937C
:10156000AFE4B0E0EFE4F0E0808180688C930F900E
:101570000F900F90CF91DF9108950F931F93DF93FA
:10158000CF9300D000D00F92CDB7DEB789834A83C6
:101590005B836C837D838981882F90E08130910506
:1015A000B1F50AE410E0E6E4F0E080819181CC013D
:1015B000A0E0B0E0BC01CD010E943705DC01CB0109
:1015C000BC01CD012A813B814C815D810E941F02BB
:1015D000DC01CB01BC01CD0120E030E048EC52E45D
:1015E0000E941903DC01CB01BC01CD0120E030E0F9
:1015F00040E85FE30E94C101DC01CB01BC01CD01E9
:101600000E944900DC01CB01F801918380830F9097
:101610000F900F900F900F90CF91DF911F910F912E
:1016200008950F931F93DF93CF930F92CDB7DEB73B
:10163000898306E410E08981282F30E040E050E003
:1016400084E294EFA0E0B0E0BC01CD010E94F6314D
:10165000DA01C901F801918380830F90CF91DF9166
:101660001F910F910895DF93CF930F92CDB7DEB7FF
:10167000898389810E9428090F90CF91DF91089575
:10168000DF93CF930F92CDB7DEB7898389810E9414
:101690006F090F90CF91DF910895DF93CF93CDB76E
:1016A000DEB7ADE2B0E0EDE2F0E0808180628C93E5
:1016B000ADE2B0E0EDE2F0E0808180648C93CF9108
:1016C000DF910895DF93CF9300D000D00F92CDB774
:1016D000DEB78D83EFE2F0E08D81808319821A827C
:1016E0001B821C8213C089819A81AB81BC810196C7
:1016F000A11DB11D89839A83AB83BC83EEE2F0E028
:101700008081881F8827881F813061F089819A81B4
:10171000AB81BC81803824E892072EE1A20720E04B
:10172000B20708F3EFE2F0E080810F900F900F9086
:101730000F900F90CF91DF910895DF93CF93CDB7A6
:10174000DEB7A6E5B0E0E6E5F0E0808184608C934A
:10175000CF91DF910895DF93CF93CDB7DEB7A6E5A4
:10176000B0E0E6E5F0E0808180628C93A6E5B0E031
:10177000E6E5F0E0808180688C93E6E5F0E080812A
:101780008823DCF7E1E2F0E08081882F90E0887F19
:10179000907088309105B1F7CF91DF910895DF9374
:1017A000CF93CDB7DEB7A6E5B0E0E6E5F0E0808107
:1017B00080618C93A6E5B0E0E6E5F0E0808180688A
:1017C0008C93E6E5F0E080818823DCF7CF91DF9110
:1017D0000895DF93CF93CDB7DEB7A6E5B0E0E6E599
:1017E000F0E0808180628C93A6E5B0E0E6E5F0E071
:1017F000808180688C93E6E5F0E080818823DCF7C7
:10180000E1E2F0E08081882F90E0887F9070803165
:101810009105B1F7CF91DF910895DF93CF930F92A8
:10182000CDB7DEB78983E3E2F0E08981880F80835A
:10183000A6E5B0E0E6E5F0E0808180688C93E6E51F
:10184000F0E080818823DCF7E1E2F0E08081882FFE
:1018500090E0887F907088319105B1F70F90CF911B
:10186000DF910895DF93CF930F92CDB7DEB78983D1
:10187000E3E2F0E08981882F90E0880F991F816072
:101880008083A6E5B0E0E6E5F0E080818F7D8C9373
:10189000A6E5B0E0E6E5F0E080818F7E8C93A6E5DA
:1018A000B0E0E6E5F0E0808180688C93E6E5F0E06A
:1018B00080818823DCF7E1E2F0E08081882F90E0EE
:1018C000887F907080349105B1F70F90CF91DF91B0
:1018D0000895DF93CF930F92CDB7DEB78983E3E20C
:1018E000F0E089818083A6E5B0E0E6E5F0E0808164
:1018F0008F7D8C93A6E5B0E0E6E5F0E0808180681E
:101900008C93E6E5F0E080818823DCF7E1E2F0E00B
:101910008081882F90E0887F907088329105B1F7A0
:101920000F90CF91DF910895DF93CF930F92CDB7B2
:10193000DEB7E3E2F0E080818983A6E5B0E0E6E58A
:10194000F0E080818F7D8C93A6E5B0E0E6E5F0E0E5
:10195000808180648C93A6E5B0E0E6E5F0E08081CC
:101960008F7E8C93A6E5B0E0E6E5F0E080818068AC
:101970008C93E6E5F0E080818823DCF7E1E2F0E09B
:101980008081882F90E0887F907080359105B1F735
:1019900089810F90CF91DF910895DF93CF93CDB7D9
:1019A000DEB7AFE5B0E0EFE5F0E0808180688C93D2
:1019B000CF91DF910895DF93CF93CDB7DEB7AFE539
:1019C000B0E0EFE5F0E080818F778C93CF91DF91ED
:1019D0000895DF93CF9300D00F92CDB7DEB7898300
:1019E0008981282F30E03B832A838A819B81813043
:1019F0009105F9F02A813B812230310581F18A81FC
:101A00009B810097D1F5A5E5B0E0E5E5F0E08081A8
:101A100081608C93A5E5B0E0E5E5F0E0808182602F
:101A20008C93ABE5B0E0EBE5F0E0808180648C93D3
:101A300024C0A5E5B0E0E5E5F0E080818B7F8C93E4
:101A4000A5E5B0E0E5E5F0E0808188608C93ABE54A
:101A5000B0E0EBE5F0E0808180688C930EC0A4E5F7
:101A6000B0E0E4E5F0E0808180648C93ABE5B0E029
:101A7000EBE5F0E0808180628C930F900F900F90E7
:101A8000CF91DF910895DF93CF9300D0CDB7DEB72C
:101A90009A83898389819A819093080280930702AF
:101AA0000F900F90CF91DF9108951F920F920FB674
:101AB0000F9211242F933F934F935F936F937F93D4
:101AC0008F939F93AF93BF93EF93FF93DF93CF9346
:101AD000CDB7DEB7E0910702F09108020995CF91EA
:101AE000DF91FF91EF91BF91AF919F918F917F9186
:101AF0006F915F914F913F912F910F900FBE0F907B
:101B00001F9018951F920F920FB60F921124DF931A
:101B1000CF93CDB7DEB7CF91DF910F900FBE0F906F
:101B20001F9018951F920F920FB60F921124DF93FA
:101B3000CF93CDB7DEB7CF91DF910F900FBE0F904F
:101B40001F901895DF93CF93CDB7DEB72A970FB6C6
:101B5000F894DEBF0FBECDBF8B836C838B819AE080
:101B6000692F0E94B531892F8A838B819AE0692F72
:101B70000E94B53189838C81282F30E03A872987EC
:101B800089859A85009739F029853A852130310574
:101B900009F476C0E4C08981282F30E038872F838C
:101BA0008F8198858230910561F12F8138852330AE
:101BB000310534F48F8198858130910569F0CFC06B
:101BC0002F8138852330310589F18F8198858430C4
:101BD000910509F440C0C3C0AAE3B0E0EAE3F0E035
:101BE0008081482F8A81282F30E081E090E0022E0A
:101BF00002C0880F991F0A94E2F7809584238C9382
:101C0000AEC0A7E3B0E0E7E3F0E08081482F8A812F
:101C1000282F30E081E090E0022E02C0880F991F4B
:101C20000A94E2F7809584238C9399C0A4E3B0E0F2
:101C3000E4E3F0E08081482F8A81282F30E081E0C2
:101C400090E0022E02C0880F991F0A94E2F7809557
:101C500084238C9384C0A1E3B0E0E1E3F0E08081D1
:101C6000482F8A81282F30E081E090E0022E02C0C8
:101C7000880F991F0A94E2F7809584238C936FC094
:101C80008981282F30E03E832D838D819E81823093
:101C9000910551F12D813E812330310534F48D8140
:101CA0009E818130910561F05AC02D813E812330A3
:101CB000310571F18D819E8184309105E9F14FC02C
:101CC000AAE3B0E0EAE3F0E08081482F8A81282F80
:101CD00030E081E090E0022E02C0880F991F0A9444
:101CE000E2F7842B8C933BC0A7E3B0E0E7E3F0E09E
:101CF0008081482F8A81282F30E081E090E0022EF9
:101D000002C0880F991F0A94E2F7842B8C9327C096
:101D1000A4E3B0E0E4E3F0E08081482F8A81282F3B
:101D200030E081E090E0022E02C0880F991F0A94F3
:101D3000E2F7842B8C9313C0A1E3B0E0E1E3F0E081
:101D40008081482F8A81282F30E081E090E0022EA8
:101D500002C0880F991F0A94E2F7842B8C932A966D
:101D60000FB6F894DEBF0FBECDBFCF91DF910895BF
:101D7000DF93CF93CDB7DEB72A970FB6F894DEBFC7
:101D80000FBECDBF8B836C838B819AE0692F0E943D
:101D9000B531892F8A838B819AE0692F0E94B531F2
:101DA00089838C81282F30E03A87298789859A8515
:101DB000009739F029853A852130310509F476C03C
:101DC000E4C08981282F30E038872F838F81988560
:101DD0008230910561F12F8138852330310534F44B
:101DE0008F8198858130910569F0CFC02F8138852A
:101DF0002330310589F18F8198858430910509F46C
:101E000040C0C3C0ABE3B0E0EBE3F0E08081482F1B
:101E10008A81282F30E081E090E0022E02C0880FF6
:101E2000991F0A94E2F7809584238C93AEC0A8E3AF
:101E3000B0E0E8E3F0E08081482F8A81282F30E08D
:101E400081E090E0022E02C0880F991F0A94E2F709
:101E5000809584238C9399C0A5E3B0E0E5E3F0E09E
:101E60008081482F8A81282F30E081E090E0022E87
:101E700002C0880F991F0A94E2F7809584238C93FF
:101E800084C0A2E3B0E0E2E3F0E08081482F8A81E1
:101E9000282F30E081E090E0022E02C0880F991FC9
:101EA0000A94E2F7809584238C936FC08981282F50
:101EB00030E03E832D838D819E818230910551F1EA
:101EC0002D813E812330310534F48D819E81813016
:101ED000910561F05AC02D813E812330310571F1A9
:101EE0008D819E8184309105E9F14FC0ABE3B0E074
:101EF000EBE3F0E08081482F8A81282F30E081E0F9
:101F000090E0022E02C0880F991F0A94E2F7842BFA
:101F10008C933BC0A8E3B0E0E8E3F0E08081482F79
:101F20008A81282F30E081E090E0022E02C0880FE5
:101F3000991F0A94E2F7842B8C9327C0A5E3B0E0A5
:101F4000E5E3F0E08081482F8A81282F30E081E0AE
:101F500090E0022E02C0880F991F0A94E2F7842BAA
:101F60008C9313C0A2E3B0E0E2E3F0E08081482F5D
:101F70008A81282F30E081E090E0022E02C0880F95
:101F8000991F0A94E2F7842B8C932A960FB6F89443
:101F9000DEBF0FBECDBFCF91DF910895DF93CF930A
:101FA00000D000D00F92CDB7DEB78B838B819AE043
:101FB000692F0E94B531892F8A838B819AE0692F1E
:101FC0000E94B53189838981282F30E03D832C839D
:101FD0008C819D818230910551F12C813D8123308E
:101FE000310534F48C819D818130910561F05AC0B6
:101FF0002C813D812330310571F18C819D818430AC
:102000009105E9F14FC0ABE3B0E0EBE3F0E0808194
:10201000482F8A81282F30E081E090E0022E02C014
:10202000880F991F0A94E2F784278C933BC0A8E39A
:10203000B0E0E8E3F0E08081482F8A81282F30E08B
:1020400081E090E0022E02C0880F991F0A94E2F707
:1020500084278C9327C0A5E3B0E0E5E3F0E080811E
:10206000482F8A81282F30E081E090E0022E02C0C4
:10207000880F991F0A94E2F784278C9313C0A2E378
:10208000B0E0E2E3F0E08081482F8A81282F30E041
:1020900081E090E0022E02C0880F991F0A94E2F7B7
:1020A00084278C930F900F900F900F900F90CF91EB
:1020B000DF910895DF93CF9300D000D000D0CDB74B
:1020C000DEB78C838C819AE0692F0E94B531892F0D
:1020D0008B838C819AE0692F0E94B5318A831982A3
:1020E0008A81282F30E03E832D834D815E814230EE
:1020F000510541F18D819E818330910534F42D810C
:102100003E812130310561F052C04D815E81433006
:10211000510551F18D819E8184309105B9F147C0FF
:10212000E9E3F0E08081282F30E08B81882F90E078
:10213000A90102C0559547958A95E2F7CA018170B9
:10214000898335C0E6E3F0E08081282F30E08B8181
:10215000882F90E0A90102C0559547958A95E2F72E
:10216000CA018170898323C0E3E3F0E08081282FD6
:1021700030E08B81882F90E0A90102C055954795EA
:102180008A95E2F7CA018170898311C0E0E3F0E02B
:102190008081282F30E08B81882F90E0A90102C038
:1021A000559547958A95E2F7CA018170898389819F
:1021B00026960FB6F894DEBF0FBECDBFCF91DF914C
:1021C0000895DF93CF93CDB7DEB72A970FB6F89473
:1021D000DEBF0FBECDBF8B836C838B819AE0692FEE
:1021E0000E94B531892F8A838B819AE0692F0E94E2
:1021F000B53189838C81282F30E03A8729878985FA
:102200009A85009739F029853A852130310509F4FE
:1022100076C0E4C08981282F30E038872F838F81F2
:1022200098858230910561F12F8138852330310501
:1022300034F48F8198858130910569F0CFC02F816A
:1022400038852330310589F18F8198858430910557
:1022500009F440C0C3C0ABE3B0E0EBE3F0E0808141
:10226000482F8A81282F30E081E090E0022E02C0C2
:10227000880F991F0A94E2F7809584238C93AEC04F
:10228000A8E3B0E0E8E3F0E08081482F8A81282FBE
:1022900030E081E090E0022E02C0880F991F0A947E
:1022A000E2F7809584238C9399C0A5E3B0E0E5E341
:1022B000F0E08081482F8A81282F30E081E090E093
:1022C000022E02C0880F991F0A94E2F7809584239A
:1022D0008C9384C0A2E3B0E0E2E3F0E08081482F79
:1022E0008A81282F30E081E090E0022E02C0880F22
:1022F000991F0A94E2F7809584238C936FC089819B
:10230000282F30E03E832D838D819E818230910580
:1023100051F12D813E812330310534F48D819E8130
:102320008130910561F05AC02D813E812330310505
:1023300071F18D819E8184309105E9F14FC0ABE34D
:10234000B0E0EBE3F0E08081482F8A81282F30E075
:1023500081E090E0022E02C0880F991F0A94E2F7F4
:10236000842B8C933BC0A8E3B0E0E8E3F0E08081ED
:10237000482F8A81282F30E081E090E0022E02C0B1
:10238000880F991F0A94E2F7842B8C9327C0A5E34A
:10239000B0E0E5E3F0E08081482F8A81282F30E02B
:1023A00081E090E0022E02C0880F991F0A94E2F7A4
:1023B000842B8C9313C0A2E3B0E0E2E3F0E08081D1
:1023C000482F8A81282F30E081E090E0022E02C061
:1023D000880F991F0A94E2F7842B8C932A960FB6E4
:1023E000F894DEBF0FBECDBFCF91DF910895DF938C
:1023F000CF93CDB7DEB72E970FB6F894DEBF0FBEE2
:10240000CDBF0E949D0B80E090E0AAE7B4E48B87EB
:102410009C87AD87BE876B857C858D859E8520E0FA
:1024200030E04AE755E40E941F02DC01CB018F83B4
:102430009887A987BA876F81788589859A8520E0F2
:1024400030E040E85FE30E94550488232CF481E0EB
:1024500090E09E838D833FC06F81788589859A85C2
:1024600020E03FEF4FE757E40E94F50318164CF5C4
:102470006B857C858D859E8520E030E040E251E4CF
:102480000E941F02DC01CB01BC01CD010E9449006A
:10249000DC01CB019E838D830FC080E991E09C839A
:1024A0008B838B819C810197F1F79C838B838D813A
:1024B0009E8101979E838D838D819E81009769F710
:1024C00014C06F81788589859A850E944900DC0156
:1024D000CB019E838D838D819E819A83898389819F
:1024E0009A810197F1F79A8389832E960FB6F89413
:1024F000DEBF0FBECDBFCF91DF910895DF93CF93A5
:10250000CDB7DEB761970FB6F894DEBF0FBECDBF73
:102510008F87688B498B0E94AB0B8F8580650E94EB
:102520000D0C88890E94690C89890E94690C0E949F
:10253000CF0B80E090E0A0E2B1E48B879C87AD8771
:10254000BE876B857C858D859E8520E030E04AE7DF
:1025500055E40E941F02DC01CB018F839887A98775
:10256000BA876F81788589859A8520E030E040E8D8
:102570005FE30E94550488232CF481E090E09E8361
:102580008D833FC06F81788589859A8520E03FEFF4
:102590004FE757E40E94F50318164CF56B857C85D0
:1025A0008D859E8520E030E040E251E40E941F02CC
:1025B000DC01CB01BC01CD010E944900DC01CB0153
:1025C0009E838D830FC080E991E09C838B838B81F8
:1025D0009C810197F1F79C838B838D819E8101976C
:1025E0009E838D838D819E81009769F714C06F81D2
:1025F000788589859A850E944900DC01CB019E83FC
:102600008D838D819E819A83898389819A810197A7
:10261000F1F79A83898361960FB6F894DEBF0FBEF7
:10262000CDBFCF91DF910895DF93CF9300D00F926C
:10263000CDB7DEB78A836B8319820E94AB0B8A8188
:1026400080650E940D0C8B810E94690C0E94E90B31
:102650008A8180650E94320C0E94940C89830E94BA
:10266000CF0B89810F900F900F90CF91DF9108953C
:10267000DF93CF93CDB7DEB7A7E2B0E0E7E2F0E0BB
:1026800080818F778C93A7E2B0E0E7E2F0E0808171
:1026900080648C93A7E2B0E0E7E2F0E080818F7D78
:1026A0008C93A6E2B0E0E6E2F0E0808184608C9357
:1026B000A6E2B0E0E6E2F0E0808182608C93A6E2E0
:1026C000B0E0E6E2F0E0808181608C93A6E2B0E0C9
:1026D000E6E2F0E0808180628C93A6E2B0E0E6E280
:1026E000F0E0808180688C93CF91DF910895DF9333
:1026F000CF93CDB7DEB727970FB6F894DEBF0FBEE6
:10270000CDBF8D8319821A821B821C828D81282F56
:1027100030E03F832E838E819F818330910509F4C1
:102720009BC02E813F81243031058CF48E819F81A6
:102730008130910509F448C02E813F812230310556
:102740000CF066C08E819F810097D1F038C12E8138
:102750003F812530310509F4C7C08E819F818530C6
:1027600091050CF49DC02E813F812630310509F47E
:10277000DFC08E819F818730910509F4FDC01FC1A4
:10278000A7E2B0E0E7E2F0E080818F7E8C93A7E2E1
:10279000B0E0E7E2F0E08081877F8C93A7E2B0E0D1
:1027A000E7E2F0E080818B7F8C93A7E2B0E0E7E284
:1027B000F0E080818D7F8C93A7E2B0E0E7E2F0E06B
:1027C00080818E7F8C93FBC0A7E2B0E0E7E2F0E06F
:1027D00080818F7E8C93A7E2B0E0E7E2F0E0808119
:1027E000877F8C93A7E2B0E0E7E2F0E080818B7F07
:1027F0008C93A7E2B0E0E7E2F0E080818D7F8C93DC
:10280000A7E2B0E0E7E2F0E0808181608C93D7C07E
:10281000A7E2B0E0E7E2F0E080818F7E8C93A7E250
:10282000B0E0E7E2F0E08081877F8C93A7E2B0E040
:10283000E7E2F0E080818B7F8C93A7E2B0E0E7E2F3
:10284000F0E0808182608C93A7E2B0E0E7E2F0E004
:1028500080818E7F8C93B3C0A7E2B0E0E7E2F0E026
:1028600080818F7E8C93A7E2B0E0E7E2F0E0808188
:10287000877F8C93A7E2B0E0E7E2F0E080818B7F76
:102880008C93A7E2B0E0E7E2F0E0808182608C9375
:10289000A7E2B0E0E7E2F0E0808181608C938FC036
:1028A000A7E2B0E0E7E2F0E080818F7E8C93A7E2C0
:1028B000B0E0E7E2F0E08081877F8C93A7E2B0E0B0
:1028C000E7E2F0E0808184608C93A7E2B0E0E7E289
:1028D000F0E080818D7F8C93A7E2B0E0E7E2F0E04A
:1028E00080818E7F8C936BC0A7E2B0E0E7E2F0E0DE
:1028F00080818F7E8C93A7E2B0E0E7E2F0E08081F8
:10290000877F8C93A7E2B0E0E7E2F0E0808184600B
:102910008C93A7E2B0E0E7E2F0E080818D7F8C93BA
:10292000A7E2B0E0E7E2F0E0808181608C9347C0ED
:10293000A7E2B0E0E7E2F0E080818F7E8C93A7E22F
:10294000B0E0E7E2F0E08081877F8C93A7E2B0E01F
:10295000E7E2F0E0808184608C93A7E2B0E0E7E2F8
:10296000F0E0808182608C93A7E2B0E0E7E2F0E0E3
:1029700080818E7F8C9323C0A7E2B0E0E7E2F0E095
:1029800080818F7E8C93A7E2B0E0E7E2F0E0808167
:10299000877F8C93A7E2B0E0E7E2F0E0808184607B
:1029A0008C93A7E2B0E0E7E2F0E0808182608C9354
:1029B000A7E2B0E0E7E2F0E0808181608C93A6E2DC
:1029C000B0E0E6E2F0E0808180648C9316C08981FB
:1029D0009A81AB81BC810196A11DB11D89839A8327
:1029E000AB83BC83E6E2F0E0808182958F70882F14
:1029F00090E081709070882361F489819A81AB8125
:102A0000BC8180302DE2920721E3A20721E0B207CA
:102A1000F0F2E4E2F0E08081918127960FB6F8941D
:102A2000DEBF0FBECDBFCF91DF910895DF93CF936F
:102A3000CDB7DEB781E00E94520A82E30E94110BFB
:102A4000CF91DF910895DF93CF9300D000D00F9204
:102A5000CDB7DEB78D838D81882F90E0AA2797FDB3
:102A6000A095BA2FBC01CD010E948504DC01CB01E9
:102A7000BC01CD0120E030E040EA50E40E941F029A
:102A8000DC01CB01BC01CD0120E030E044E353E4A4
:102A90000E941903DC01CB01BC01CD0120E030E034
:102AA00040EA50E40E94F201DC01CB0189839A8361
:102AB000AB83BC8329813A814B815C8181E0BA017F
:102AC000A9010E94BD0A0F900F900F900F900F90D8
:102AD000CF91DF910895DF93CF93CDB7DEB781E03B
:102AE0000E94330BCF91DF910895DF93CF93CDB741
:102AF000DEB781E00E94400BCF91DF910895DF9314
:102B0000CF93CDB7DEB78EE061E00E94A20D8FE0DB
:102B100061E00E94A20D80E161E00E94A20D81E1CE
:102B200061E00E94A20D85E161E00E94A20D86E1B4
:102B300061E00E94A20DCF91DF910895DF93CF93C2
:102B4000CDB7DEB76F970FB6F894DEBF0FBECDBF1F
:102B50008F8F8F8D9AE0692F0E94B531892F8E8FCC
:102B60008F8D9AE0692F0E94B5318D8F8D8D0E94D7
:102B7000B91686E161E00E94B80E80E090E0A0E81E
:102B8000BFE3898F9A8FAB8FBC8F698D7A8D8B8DC8
:102B90009C8D20E030E04AE755E40E941F02DC01F2
:102BA000CB018D8B9E8BAF8BB88F6D897E898F8982
:102BB000988D20E030E040E85FE30E9455048823D0
:102BC0002CF481E090E09C8B8B8B3FC06D897E89DB
:102BD0008F89988D20E03FEF4FE757E40E94F5037F
:102BE00018164CF5698D7A8D8B8D9C8D20E030E028
:102BF00040E251E40E941F02DC01CB01BC01CD0187
:102C00000E944900DC01CB019C8B8B8B0FC080E9BB
:102C100091E09A8B898B89899A890197F1F79A8B30
:102C2000898B8B899C8901979C8B8B8B8B899C8949
:102C3000009769F714C06D897E898F89988D0E94ED
:102C40004900DC01CB019C8B8B8B8B899C89988BF9
:102C50008F878F8598890197F1F7988B8F8786E109
:102C600060E00E94B80E8E8D0E94B91685E161E089
:102C70000E94B80E80E090E0A0E8BFE38B879C87BD
:102C8000AD87BE876B857C858D859E8520E030E095
:102C90004AE755E40E941F02DC01CB018F8398872D
:102CA000A987BA876F81788589859A8520E030E089
:102CB00040E85FE30E94550488232CF481E090E013
:102CC0009E838D833FC06F81788589859A8520E0BA
:102CD0003FEF4FE757E40E94F50318164CF56B855C
:102CE0007C858D859E8520E030E040E251E40E94A5
:102CF0001F02DC01CB01BC01CD010E944900DC01B7
:102D0000CB019E838D830FC080E991E09C838B83F0
:102D10008B819C810197F1F79C838B838D819E81B0
:102D200001979E838D838D819E81009769F714C0E2
:102D30006F81788589859A850E944900DC01CB01E5
:102D40009E838D838D819E819A83898389819A81D7
:102D50000197F1F79A83898385E160E00E94B80EBC
:102D60006F960FB6F894DEBF0FBECDBFCF91DF9147
:102D70000895DF93CF9300D00F92CDB7DEB789834C
:102D80008981282F30E03B832A838A819B8184308C
:102D9000910509F48BC02A813B8125303105ECF483
:102DA0008A819B818130910509F44DC02A813B8144
:102DB000223031052CF48A819B81009799F1DBC088
:102DC0002A813B812230310509F44EC08A819B81E2
:102DD0008330910509F459C0CEC02A813B81273048
:102DE000310509F496C08A819B81883091056CF485
:102DF0002A813B812530310509F469C08A819B8194
:102E00008630910509F474C0B6C02A813B81283010
:102E1000310509F48FC08A819B818930910509F4BD
:102E20009AC0A9C08EE060E00E94A20D8FE060E031
:102E30000E94A20D80E160E00E94A20D81E160E0AD
:102E40000E94A20D98C08EE061E00E94A20D8FE06A
:102E500060E00E94A20D80E160E00E94A20D81E18D
:102E600060E00E94A20D87C08EE060E00E94A20D8B
:102E70008FE061E00E94A20D80E160E00E94A20D5F
:102E800081E160E00E94A20D76C08EE061E00E94C8
:102E9000A20D8FE061E00E94A20D80E160E00E943F
:102EA000A20D81E160E00E94A20D65C08EE060E0AD
:102EB0000E94A20D8FE060E00E94A20D80E161E01F
:102EC0000E94A20D81E160E00E94A20D54C08EE03C
:102ED00061E00E94A20D8FE060E00E94A20D80E1FF
:102EE00061E00E94A20D81E160E00E94A20D43C05A
:102EF0008EE060E00E94A20D8FE061E00E94A20DD2
:102F000080E161E00E94A20D81E160E00E94A20DDB
:102F100032C08EE061E00E94A20D8FE061E00E946D
:102F2000A20D80E161E00E94A20D81E160E00E94BB
:102F3000A20D21C08EE060E00E94A20D8FE060E053
:102F40000E94A20D80E160E00E94A20D81E161E09B
:102F50000E94A20D10C08EE061E00E94A20D8FE0E1
:102F600060E00E94A20D80E160E00E94A20D81E17C
:102F700061E00E94A20D0F900F900F90CF91DF9112
:102F80000895DF93CF93CDB7DEB78CE061E00E9468
:102F9000A20DCF91DF910895DF93CF93CDB7DEB728
:102FA0008CE061E00E94B80ECF91DF910895DF932D
:102FB000CF93CDB7DEB78CE060E00E94B80ECF9122
:102FC000DF910895DF93CF93CDB7DEB78CE00E94F9
:102FD000CE0FCF91DF910895DF93CF9300D00F9262
:102FE000CDB7DEB789838981282F30E03B832A83E0
:102FF0008A819B818130910571F02A813B81223049
:10300000310571F08A819B81009771F484E160E061
:103010000E94A20D09C08EE260E00E94A20D04C0D1
:103020008AE260E00E94A20D0F900F900F90CF9166
:10303000DF910895DF93CF93CDB7DEB7AE970FB68C
:10304000F894DEBF0FBECDBF8CA71BA68CA5282F82
:1030500030E03EA72DA78DA59EA58130910509F4EE
:1030600091C02DA53EA52230310509F411C18DA5D1
:103070009EA5009709F090C184E10E945A1081300A
:1030800009F08AC180E090E0A2E0B3E48FA398A7A2
:10309000A9A7BAA76FA178A589A59AA520E030E0D5
:1030A0004AE755E40E941F02DC01CB018BA39CA3DD
:1030B000ADA3BEA36BA17CA18DA19EA120E030E0B9
:1030C00040E85FE30E94550488232CF481E090E0FF
:1030D0009AA389A33FC06BA17CA18DA19EA120E0F2
:1030E0003FEF4FE757E40E94F50318164CF56FA128
:1030F00078A589A59AA520E030E040E251E40E943D
:103100001F02DC01CB01BC01CD010E944900DC01A2
:10311000CB019AA389A30FC080E991E098A38F8F78
:103120008F8D98A10197F1F798A38F8F89A19AA10C
:1031300001979AA389A389A19AA1009769F714C05E
:103140006BA17CA18DA19EA10E944900DC01CB0155
:103150009AA389A389A19AA19E8F8D8F8D8D9E8D13
:103160000197F1F79E8F8D8F84E10E945A10813074
:1031700009F012C184E10E945A108130D9F381E034
:103180008BA70AC18EE20E945A10813009F004C157
:1031900080E090E0A2E0B3E4898F9A8FAB8FBC8F80
:1031A000698D7A8D8B8D9C8D20E030E04AE755E467
:1031B0000E941F02DC01CB018D8B9E8BAF8BB88FE1
:1031C0006D897E898F89988D20E030E040E85FE34B
:1031D0000E94550488232CF481E090E09C8B8B8B1B
:1031E0003FC06D897E898F89988D20E03FEF4FE742
:1031F00057E40E94F50318164CF5698D7A8D8B8D76
:103200009C8D20E030E040E251E40E941F02DC018E
:10321000CB01BC01CD010E944900DC01CB019C8B9C
:103220008B8B0FC080E991E09A8B898B89899A8971
:103230000197F1F79A8B898B8B899C8901979C8BDD
:103240008B8B8B899C89009769F714C06D897E8967
:103250008F89988D0E944900DC01CB019C8B8B8B60
:103260008B899C89988B8F878F8598890197F1F737
:10327000988B8F878EE20E945A10813009F08CC0A3
:103280008EE20E945A108130D9F381E08BA784C06E
:103290008AE20E945A10813009F07EC080E090E0FE
:1032A000A2E0B3E48B879C87AD87BE876B857C8566
:1032B0008D859E8520E030E04AE755E40E941F029C
:1032C000DC01CB018F839887A987BA876F817885C6
:1032D00089859A8520E030E040E85FE30E9455044C
:1032E00088232CF481E090E09E838D833FC06F8122
:1032F000788589859A8520E03FEF4FE757E40E9463
:10330000F50318164CF56B857C858D859E8520E030
:1033100030E040E251E40E941F02DC01CB01BC011D
:10332000CD010E944900DC01CB019E838D830FC03B
:1033300080E991E09C838B838B819C810197F1F7DD
:103340009C838B838D819E8101979E838D838D814C
:103350009E81009769F714C06F81788589859A8569
:103360000E944900DC01CB019E838D838D819E816B
:103370009A83898389819A810197F1F79A83898356
:103380008AE20E945A10813039F48AE20E945A106F
:103390008130D9F381E08BA78BA5AE960FB6F89458
:1033A000DEBF0FBECDBFCF91DF910895DF93CF93E6
:1033B000CDB7DEB7AE970FB6F894DEBF0FBECDBF68
:1033C0008CA71BA68CA5282F30E03EA72DA78DA586
:1033D0009EA58130910509F492C02DA53EA522300D
:1033E000310509F413C18DA59EA5009709F092C17E
:1033F00084E10E945A10813009F08CC180E090E095
:10340000A2E0B3E48FA398A7A9A7BAA76FA178A554
:1034100089A59AA520E030E04AE755E40E941F0202
:10342000DC01CB018BA39CA3ADA3BEA36BA17CA1AC
:103430008DA19EA120E030E040E85FE30E945504AA
:1034400088232CF481E090E09AA389A33FC06BA16C
:103450007CA18DA19EA120E03FEF4FE757E40E94A1
:10346000F50318164CF56FA178A589A59AA520E05B
:1034700030E040E251E40E941F02DC01CB01BC01BC
:10348000CD010E944900DC01CB019AA389A30FC0A2
:1034900080E991E098A38F8F8F8D98A10197F1F724
:1034A00098A38F8F89A19AA101979AA389A389A133
:1034B0009AA1009769F714C06BA17CA18DA19EA170
:1034C0000E944900DC01CB019AA389A389A19AA19A
:1034D0009E8F8D8F8D8D9E8D0197F1F79E8F8D8F95
:1034E00084E10E945A10813009F014C184E10E94E5
:1034F0005A10813009F00EC181E08BA70BC18EE21A
:103500000E945A10813009F005C180E090E0A2E0ED
:10351000B3E4898F9A8FAB8FBC8F698D7A8D8B8D39
:103520009C8D20E030E04AE755E40E941F02DC0158
:10353000CB018D8B9E8BAF8BB88F6D897E898F89E8
:10354000988D20E030E040E85FE30E945504882336
:103550002CF481E090E09C8B8B8B3FC06D897E8941
:103560008F89988D20E03FEF4FE757E40E94F503E5
:1035700018164CF5698D7A8D8B8D9C8D20E030E08E
:1035800040E251E40E941F02DC01CB01BC01CD01ED
:103590000E944900DC01CB019C8B8B8B0FC080E922
:1035A00091E09A8B898B89899A890197F1F79A8B97
:1035B000898B8B899C8901979C8B8B8B8B899C89B0
:1035C000009769F714C06D897E898F89988D0E9454
:1035D0004900DC01CB019C8B8B8B8B899C89988B60
:1035E0008F878F8598890197F1F7988B8F878EE267
:1035F0000E945A10813009F08DC08EE20E945A104C
:10360000813009F087C081E08BA784C08AE20E94E4
:103610005A10813009F07EC080E090E0A2E0B3E46F
:103620008B879C87AD87BE876B857C858D859E85C6
:1036300020E030E04AE755E40E941F02DC01CB01A4
:103640008F839887A987BA876F81788589859A85BE
:1036500020E030E040E85FE30E94550488232CF42A
:1036600081E090E09E838D833FC06F81788589855E
:103670009A8520E03FEF4FE757E40E94F5031816C4
:103680004CF56B857C858D859E8520E030E040E2A1
:1036900051E40E941F02DC01CB01BC01CD010E945C
:1036A0004900DC01CB019E838D830FC080E991E04E
:1036B0009C838B838B819C810197F1F79C838B8307
:1036C0008D819E8101979E838D838D819E81009740
:1036D00069F714C06F81788589859A850E944900B1
:1036E000DC01CB019E838D838D819E819A838983AA
:1036F00089819A810197F1F79A8389838AE20E94EE
:103700005A10813039F48AE20E945A10813011F443
:1037100081E08BA78BA5AE960FB6F894DEBF0FBEE7
:10372000CDBFCF91DF910895DF93CF9300D00F925B
:10373000CDB7DEB789838981282F30E03B832A8388
:103740008A819B818130910571F02A813B812230F1
:10375000310571F08A819B81009771F480E261E00C
:103760000E94A20D09C085E261E00E94A20D04C082
:103770008BE261E00E94A20D0F900F900F90CF910D
:10378000DF910895DF93CF9300D00F92CDB7DEB7CE
:1037900089838981282F30E03B832A838A819B811A
:1037A0008130910571F02A813B812230310571F021
:1037B0008A819B81009771F480E261E00E94B80EDB
:1037C00009C085E261E00E94B80E04C08BE261E0AE
:1037D0000E94B80E0F900F900F90CF91DF91089537
:1037E000DF93CF9300D00F92CDB7DEB78983898165
:1037F000282F30E03B832A838A819B818130910589
:1038000071F02A813B812230310571F08A819B81E0
:10381000009771F480E260E00E94B80E09C085E272
:1038200060E00E94B80E04C08BE260E00E94B80E17
:103830000F900F900F90CF91DF910895DF93CF936A
:1038400000D00F92CDB7DEB789838981282F30E071
:103850003B832A838A819B818130910569F02A818B
:103860003B812230310561F08A819B81009759F4B8
:1038700080E20E94CE0F07C085E20E94CE0F03C0F7
:103880008BE20E94CE0F0F900F900F90CF91DF919F
:103890000895DF93CF93CDB7DEB788E161E00E9452
:1038A000A20D89E161E00E94A20D8AE161E00E941F
:1038B000A20D8BE161E00E94A20D85E161E00E9412
:1038C000A20D87E161E00E94A20D86E161E00E9405
:1038D000A20D86E160E00E94B80E83E30E947A1E8A
:1038E00082E30E947A1E88E20E947A1E8CE00E9487
:1038F0007A1E81E00E947A1E82E00E947A1ECF9199
:10390000DF910895DF93CF93CDB7DEB7E9970FB678
:10391000F894DEBF0FBECDBF89AF85E161E00E94A4
:10392000B80E89AD82958F700E942D2287E161E0EB
:103930000E94B80E80E090E0A0E8BFE38DAB9EABA4
:10394000AFABB8AF6DA97EA98FA998AD20E030E0EC
:103950004AE755E40E941F02DC01CB0189AB9AAB18
:10396000ABABBCAB69A97AA98BA99CA920E030E0DC
:1039700040E85FE30E94550488232CF481E090E046
:1039800098AB8FA73FC069A97AA98BA99CA920E011
:103990003FEF4FE757E40E94F50318164CF56DA969
:1039A0007EA98FA998AD20E030E040E251E40E946A
:1039B0001F02DC01CB01BC01CD010E944900DC01EA
:1039C000CB0198AB8FA70FC080E991E09EA78DA790
:1039D0008DA59EA50197F1F79EA78DA78FA598A904
:1039E000019798AB8FA78FA598A9009769F714C086
:1039F00069A97AA98BA99CA90E944900DC01CB0185
:103A000098AB8FA78FA598A99CA78BA78BA59CA5E2
:103A10000197F1F79CA78BA787E160E00E94B80EA1
:103A200080E090E0A0E8BFE38FA398A7A9A7BAA77A
:103A30006FA178A589A59AA520E030E04AE755E472
:103A40000E941F02DC01CB018BA39CA3ADA3BEA3EC
:103A50006BA17CA18DA19EA120E030E040E85FE356
:103A60000E94550488232CF481E090E09AA389A356
:103A70003FC06BA17CA18DA19EA120E03FEF4FE74D
:103A800057E40E94F50318164CF56FA178A589A597
:103A90009AA520E030E040E251E40E941F02DC01E0
:103AA000CB01BC01CD010E944900DC01CB019AA3EE
:103AB00089A30FC080E991E098A38F8F8F8D98A183
:103AC0000197F1F798A38F8F89A19AA101979AA3E3
:103AD00089A389A19AA1009769F714C06BA17CA161
:103AE0008DA19EA10E944900DC01CB019AA389A36C
:103AF00089A19AA19E8F8D8F8D8D9E8D0197F1F753
:103B00009E8F8D8F89AD0E942D2287E161E00E94FA
:103B1000B80E80E090E0A0E8BFE3898F9A8FAB8F6A
:103B2000BC8F698D7A8D8B8D9C8D20E030E04AE7CB
:103B300055E40E941F02DC01CB018D8B9E8BAF8B65
:103B4000B88F6D897E898F89988D20E030E040E8BC
:103B50005FE30E94550488232CF481E090E09C8B65
:103B60008B8B3FC06D897E898F89988D20E03FEFD8
:103B70004FE757E40E94F50318164CF5698D7A8DCE
:103B80008B8D9C8D20E030E040E251E40E941F02CA
:103B9000DC01CB01BC01CD010E944900DC01CB015D
:103BA0009C8B8B8B0FC080E991E09A8B898B8989E4
:103BB0009A890197F1F79A8B898B8B899C89019758
:103BC0009C8B8B8B8B899C89009769F714C06D89BE
:103BD0007E898F89988D0E944900DC01CB019C8BE6
:103BE0008B8B8B899C89988B8F878F859889019780
:103BF000F1F7988B8F8787E160E00E94B80E80E034
:103C000090E0A0E8BFE38B879C87AD87BE876B857C
:103C10007C858D859E8520E030E04AE755E40E9452
:103C20001F02DC01CB018F839887A987BA876F8138
:103C3000788589859A8520E030E040E85FE30E943E
:103C4000550488232CF481E090E09E838D833FC04F
:103C50006F81788589859A8520E03FEF4FE757E4AB
:103C60000E94F50318164CF56B857C858D859E8525
:103C700020E030E040E251E40E941F02DC01CB0171
:103C8000BC01CD010E944900DC01CB019E838D83E4
:103C90000FC080E991E09C838B838B819C8101978D
:103CA000F1F79C838B838D819E8101979E838D8309
:103CB0008D819E81009769F714C06F817885898511
:103CC0009A850E944900DC01CB019E838D838D8102
:103CD0009E819A83898389819A810197F1F79A83DA
:103CE0008983E9960FB6F894DEBF0FBECDBFCF91A2
:103CF000DF910895DF93CF93CDB7DEB7E9970FB685
:103D0000F894DEBF0FBECDBF89AF85E160E00E94B1
:103D1000B80E89AD82958F700E942D2287E161E0F7
:103D20000E94B80E80E090E0A0E8BFE38DAB9EABB0
:103D3000AFABB8AF6DA97EA98FA998AD20E030E0F8
:103D40004AE755E40E941F02DC01CB0189AB9AAB24
:103D5000ABABBCAB69A97AA98BA99CA920E030E0E8
:103D600040E85FE30E94550488232CF481E090E052
:103D700098AB8FA73FC069A97AA98BA99CA920E01D
:103D80003FEF4FE757E40E94F50318164CF56DA975
:103D90007EA98FA998AD20E030E040E251E40E9476
:103DA0001F02DC01CB01BC01CD010E944900DC01F6
:103DB000CB0198AB8FA70FC080E991E09EA78DA79C
:103DC0008DA59EA50197F1F79EA78DA78FA598A910
:103DD000019798AB8FA78FA598A9009769F714C092
:103DE00069A97AA98BA99CA90E944900DC01CB0191
:103DF00098AB8FA78FA598A99CA78BA78BA59CA5EF
:103E00000197F1F79CA78BA787E160E00E94B80EAD
:103E100080E090E0A0E8BFE38FA398A7A9A7BAA786
:103E20006FA178A589A59AA520E030E04AE755E47E
:103E30000E941F02DC01CB018BA39CA3ADA3BEA3F8
:103E40006BA17CA18DA19EA120E030E040E85FE362
:103E50000E94550488232CF481E090E09AA389A362
:103E60003FC06BA17CA18DA19EA120E03FEF4FE759
:103E700057E40E94F50318164CF56FA178A589A5A3
:103E80009AA520E030E040E251E40E941F02DC01EC
:103E9000CB01BC01CD010E944900DC01CB019AA3FA
:103EA00089A30FC080E991E098A38F8F8F8D98A18F
:103EB0000197F1F798A38F8F89A19AA101979AA3EF
:103EC00089A389A19AA1009769F714C06BA17CA16D
:103ED0008DA19EA10E944900DC01CB019AA389A378
:103EE00089A19AA19E8F8D8F8D8D9E8D0197F1F75F
:103EF0009E8F8D8F89AD0E942D2287E161E00E9407
:103F0000B80E80E090E0A0E8BFE3898F9A8FAB8F76
:103F1000BC8F698D7A8D8B8D9C8D20E030E04AE7D7
:103F200055E40E941F02DC01CB018D8B9E8BAF8B71
:103F3000B88F6D897E898F89988D20E030E040E8C8
:103F40005FE30E94550488232CF481E090E09C8B71
:103F50008B8B3FC06D897E898F89988D20E03FEFE4
:103F60004FE757E40E94F50318164CF5698D7A8DDA
:103F70008B8D9C8D20E030E040E251E40E941F02D6
:103F8000DC01CB01BC01CD010E944900DC01CB0169
:103F90009C8B8B8B0FC080E991E09A8B898B8989F0
:103FA0009A890197F1F79A8B898B8B899C89019764
:103FB0009C8B8B8B8B899C89009769F714C06D89CA
:103FC0007E898F89988D0E944900DC01CB019C8BF2
:103FD0008B8B8B899C89988B8F878F85988901978C
:103FE000F1F7988B8F8787E160E00E94B80E80E040
:103FF00090E0A0E8BFE38B879C87AD87BE876B8589
:104000007C858D859E8520E030E04AE755E40E945E
:104010001F02DC01CB018F839887A987BA876F8144
:10402000788589859A8520E030E040E85FE30E944A
:10403000550488232CF481E090E09E838D833FC05B
:104040006F81788589859A8520E03FEF4FE757E4B7
:104050000E94F50318164CF56B857C858D859E8531
:1040600020E030E040E251E40E941F02DC01CB017D
:10407000BC01CD010E944900DC01CB019E838D83F0
:104080000FC080E991E09C838B838B819C81019799
:10409000F1F79C838B838D819E8101979E838D8315
:1040A0008D819E81009769F714C06F81788589851D
:1040B0009A850E944900DC01CB019E838D838D810E
:1040C0009E819A83898389819A810197F1F79A83E6
:1040D0008983E9960FB6F894DEBF0FBECDBFCF91AE
:1040E000DF910895DF93CF9300D00F92CDB7DEB765
:1040F0009B838A8319820EC08981282F30E08A81B0
:104100009B81FC01E20FF31F80810E94821C898148
:104110008F5F89838981282F30E08A819B81FC0110
:10412000E20FF31F8081882339F70F900F900F90D3
:10413000CF91DF9108950F931F93DF93CF93CDB766
:10414000DEB76D970FB6F894DEBF0FBECDBF6A8F96
:104150007B8F8C8F9D8F8FEF89876A8D7B8D8C8D68
:104160009D8D0E94E304DC01CB01992364F48A8DC8
:104170009B8DAC8DBD8DB0588A8F9B8FAC8FBD8FC2
:104180008DE20E94821C6A8D7B8D8C8D9D8D0E949C
:10419000E304DC01CB01BC01CD010E9485049B013D
:1041A000AC016A8D7B8D8C8D9D8D0E94C101DC01DF
:1041B000CB018D839E83AF83B88789858F5F898785
:1041C0008985082F112707FD10956A8D7B8D8C8DB1
:1041D0009D8D0E94E304DC01CB012AE030E040E049
:1041E00050E0BC01CD010E94F631DC01CB01282F4B
:1041F000CE010A96FC01E00FF11F20836A8D7B8DB2
:104200008C8D9D8D0E94E304DC01CB012AE030E01F
:10421000B9010E94C131CB01AA2797FDA095BA2F01
:10422000BC01CD010E948504DC01CB018A8F9B8FEC
:10423000AC8FBD8F6A8D7B8D8C8D9D8D0E94E3042C
:10424000DC01CB01009709F0B8CF11C08985282F78
:10425000332727FD3095CE010A96FC01E20FF31FAC
:104260008081805D0E94821C898581508987898533
:10427000882364F76D817E818F81988520E030E00E
:1042800040E050E00E94C503882309F4B1C080E0FB
:1042900090E0A0E0B0E089839A83AB83BC836D811A
:1042A0007E818F81988520E030E040E251E40E94D9
:1042B0001F02DC01CB018D839E83AF83B8876D81A4
:1042C0007E818F8198850E94E304DC01CB01BC01D3
:1042D000CD010E9485049B01AC016D817E818F819F
:1042E00098850E94C101DC01CB0189839A83AB834D
:1042F000BC8369817A818B819C8120E030E040E23F
:1043000051E40E941F02DC01CB0189839A83AB83B5
:10431000BC8369817A818B819C810E94E304DC01EA
:10432000CB010097A105B10509F0B9CF89858F5F51
:1043300089878985082F112707FD10956D817E815A
:104340008F8198850E94E304DC01CB012AE030E0F4
:1043500040E050E0BC01CD010E94F631DC01CB0110
:10436000282FCE010A96FC01E00FF11F20836D81FA
:104370007E818F8198850E94E304DC01CB012AE0D5
:1043800030E040E050E0BC01CD010E94F631DA019E
:10439000C901BC01CD010E948504DC01CB018D83E4
:1043A0009E83AF83B8876D817E818F8198850E94BF
:1043B000E304DC01CB010097A105B10509F0B6CFFC
:1043C0008EE20E94821C11C08985282F332727FD89
:1043D0003095CE010A96FC01E20FF31F8081805DCB
:1043E0000E94821C8985815089878985882364F78A
:1043F0006D960FB6F894DEBF0FBECDBFCF91DF91A3
:104400001F910F910895DF93CF9300D000D0CDB7C7
:10441000DEB78B836C8380E8898380EC8A838B8111
:10442000282F30E0CE010196FC01E20FF31F9081AE
:104430008C81890F0E947A1E0F900F900F900F9021
:10444000CF91DF910895DF93CF93CDB7DEB781E0B1
:104450000E947A1ECF91DF910895DF93CF930F9240
:10446000CDB7DEB789838981982F917088E1692F54
:104470000E94B80E89818695982F917089E1692FE5
:104480000E94B80E898186958695982F91708AE151
:10449000692F0E94B80E8981869586958695982FFA
:1044A00091708BE1692F0E94B80E0F90CF91DF9130
:1044B0000895DF93CF93CDB7DEB781E261E00E942C
:1044C000A20D82E261E00E94A20D83E261E00E94FF
:1044D000A20D84E261E00E94A20D88E160E00E94EA
:1044E000A20D89E160E00E94A20D8AE160E00E94D5
:1044F000A20D8BE160E00E94A20D88E161E00E94C4
:10450000E11089E161E00E94E1108AE161E00E942E
:10451000E1108BE161E00E94E11081E261E00E9424
:10452000B80E82E261E00E94B80E83E261E00E9470
:10453000B80E84E261E00E94B80ECF91DF91089539
:10454000DF93CF93CDB7DEB7A6970FB6F894DEBF53
:104550000FBECDBFCE0142969BA38AA3E3EEF1E04E
:10456000FDA3ECA3F0E1FEA3ECA1FDA100808CA1D2
:104570009DA101969DA38CA3EAA1FBA100828AA123
:104580009BA101969BA38AA39EA191509EA3EEA1FD
:10459000EE2351F7198A188A1F8681E2888BB1C0F1
:1045A000888960E00E94B80E88E18F879FC08F8560
:1045B0000E945A10882309F096C080E090E0A0EF96
:1045C000B2E48B879C87AD87BE876B857C858D85A4
:1045D0009E8520E030E04AE755E40E941F02DC019E
:1045E000CB018F839887A987BA876F817885898562
:1045F0009A8520E030E040E85FE30E94550488237C
:104600002CF481E090E09E838D833FC06F8178859C
:1046100089859A8520E03FEF4FE757E40E94F50334
:1046200018164CF56B857C858D859E8520E030E0E5
:1046300040E251E40E941F02DC01CB01BC01CD012C
:104640000E944900DC01CB019E838D830FC080E96D
:1046500091E09C838B838B819C810197F1F79C83F4
:104660008B838D819E8101979E838D838D819E8119
:10467000009769F714C06F81788589859A850E94B3
:104680004900DC01CB019E838D838D819E819A83BD
:10469000898389819A810197F1F79A8389838F852C
:1046A0000E945A108823F9F48F850E945A1088239B
:1046B000D9F38889882F90E09C01215230408F8562
:1046C000882F90E0AC0148515040220F331F220F39
:1046D000331FCE010196820F931F840F951FFC019B
:1046E00071968081898B8F858F5F8F878F858C31C5
:1046F00008F45DCF888961E00E94B80E88898F5FD9
:10470000888B8889853208F44BCF8989A6960FB6A5
:10471000F894DEBF0FBECDBFCF91DF910895DF9338
:10472000CF93CDB7DEB783E261E00E94A20D84E2B1
:1047300061E00E94A20D81E00E94520ACF91DF91B8
:104740000895DF93CF9300D000D0CDB7DEB7698353
:104750007A838B839C8369817A818B819C810E947F
:1047600037059B01AC0181E0BA01A9010E94BD0A95
:104770000F900F900F900F90CF91DF910895DF93DE
:10478000CF9300D00F92CDB7DEB789838981282FD0
:1047900030E03B832A838A819B81009731F02A8114
:1047A0003B812130310551F011C083E260E00E946D
:1047B000B80E84E261E00E94B80E08C083E261E0B6
:1047C0000E94B80E84E260E00E94B80E0F900F9035
:1047D0000F90CF91DF910895DF93CF93CDB7DEB7E0
:1047E00082E00E94330BCF91DF910895DF93CF9346
:1047F000CDB7DEB782E00E94400BCF91DF910895E4
:10480000DF93CF93CDB7DEB78DE061E00E94A20DBC
:10481000CF91DF910895DF93CF93CDB7DEB78DE0D1
:1048200061E00E94B80ECF91DF910895DF93CF939E
:10483000CDB7DEB78DE060E00E94B80ECF91DF917A
:104840000895DF93CF93CDB7DEB72E970FB6F894C8
:10485000DEBF0FBECDBF8DE061E00E94B80E80E0EC
:1048600090E0A8ECB2E48B879C87AD87BE876B8510
:104870007C858D859E8520E030E04AE755E40E94E6
:104880001F02DC01CB018F839887A987BA876F81CC
:10489000788589859A8520E030E040E85FE30E94D2
:1048A000550488232CF481E090E09E838D833FC0E3
:1048B0006F81788589859A8520E03FEF4FE757E43F
:1048C0000E94F50318164CF56B857C858D859E85B9
:1048D00020E030E040E251E40E941F02DC01CB0105
:1048E000BC01CD010E944900DC01CB019E838D8378
:1048F0000FC080E991E09C838B838B819C81019721
:10490000F1F79C838B838D819E8101979E838D839C
:104910008D819E81009769F714C06F8178858985A4
:104920009A850E944900DC01CB019E838D838D8195
:104930009E819A83898389819A810197F1F79A836D
:1049400089838DE060E00E94B80E2E960FB6F89431
:10495000DEBF0FBECDBFCF91DF9108950F931F93A0
:10496000DF93CF93CDB7DEB7CC5DD0400FB6F894D0
:10497000DEBF0FBECDBF0E94491C0E94381380E0ED
:104980000E94941BFE01E552FF4F11821082FE012E
:10499000E752FF4F11821082FE01E952FF4F118250
:1049A0001082FE01EB52FF4F11821082FE01ED5288
:1049B000FF4F118210820E94232280E00E94771311
:1049C000FE01E552FF4F9183808384E00E947713BC
:1049D000FE01E752FF4F9183808385E00E947713A9
:1049E000FE01E952FF4F9183808386E00E94771396
:1049F000FE01EB52FF4F9183808387E00E94771383
:104A0000FE01ED52FF4F91838083FE01E552FF4F7F
:104A1000808191818234910508F4E0C0FE01E75263
:104A2000FF4F8081918121E08C37920708F0D6C03A
:104A3000FE01E952FF4F80819181E1E086389E07B7
:104A400008F0CCC0FE01EB52FF4F80819181F1E074
:104A50008D329F0708F4C2C0FE01ED52FF4F8081E6
:104A600091818739910508F4B9C080E690E00E94F1
:104A70007220FE01E153FF4F80E090E0AAEFB3E423
:104A800080839183A283B3838E0105531F4FFE0160
:104A9000E153FF4F608171818281938120E030E09A
:104AA0004AE755E40E941F02DC01CB01F801808334
:104AB0009183A283B383FE01E553FF4F608171812F
:104AC0008281938120E030E040E85FE30E9455045A
:104AD000882344F4FE01E753FF4F81E090E0918387
:104AE000808364C0FE01E553FF4F60817181828144
:104AF000938120E03FEF4FE757E40E94F50318163B
:104B00000CF043C0FE01E153FF4F6081718182814F
:104B1000938120E030E040E251E40E941F02DC017A
:104B2000CB018E0107531F4FBC01CD010E944900EC
:104B3000DC01CB01F801918380831FC0FE01E953A2
:104B4000FF4F80E991E091838083FE01E953FF4F9D
:104B5000808191810197F1F7FE01E953FF4F918325
:104B60008083DE01A753BF4FFE01E753FF4F8081D3
:104B70009181019711969C938E93FE01E753FF4F0D
:104B8000808191810097D1F616CF8E0107531F4F78
:104B9000FE01E553FF4F60817181828193810E9404
:104BA0004900DC01CB01F80191838083DE01AB5326
:104BB000BF4FFE01E753FF4F8081918111969C9377
:104BC0008E93FE01EB53FF4F808191810197F1F7A6
:104BD000FE01EB53FF4F91838083EDCEFE01E55242
:104BE000FF4F808191818234910508F4E0C0FE017D
:104BF000E752FF4F80819181F1E08C379F0708F0E9
:104C0000D6C0FE01E952FF4F8081918121E08738B3
:104C1000920708F4CCC0FE01EB52FF4F80819181D6
:104C2000E1E08D329E0708F4C2C0FE01ED52FF4F55
:104C3000808191818739910508F4B9C08DE690E0B3
:104C40000E947220FE01EF53FF4F80E090E0AAEF38
:104C5000B3E480839183A283B3838E0103541F4FF7
:104C6000FE01EF53FF4F608171818281938120E0CB
:104C700030E04AE755E40E941F02DC01CB01F80155
:104C800080839183A283B383FE01E354FF4F60814D
:104C900071818281938120E030E040E85FE30E94EF
:104CA0005504882344F4FE01E554FF4F81E090E071
:104CB0009183808364C0FE01E354FF4F6081718162
:104CC0008281938120E03FEF4FE757E40E94F50394
:104CD00018160CF043C0FE01EF53FF4F6081718145
:104CE0008281938120E030E040E251E40E941F0283
:104CF000DC01CB018E0105541F4FBC01CD010E9488
:104D00004900DC01CB01F801918380831FC0FE01C3
:104D1000E754FF4F80E991E091838083FE01E754DF
:104D2000FF4F808191810197F1F7FE01E754FF4F1A
:104D300091838083DE01A554BF4FFE01E554FF4FF0
:104D400080819181019711969C938E93FE01E55489
:104D5000FF4F808191810097D1F62DCE8E010554B1
:104D60001F4FFE01E354FF4F608171818281938167
:104D70000E944900DC01CB01F80191838083DE01B0
:104D8000A954BF4FFE01E554FF4F808191811196D8
:104D90009C938E93FE01E954FF4F8081918101978E
:104DA000F1F7FE01E954FF4F9183808304CEFE01A9
:104DB000E552FF4F808191818234910508F4E0C073
:104DC000FE01E752FF4F80819181F1E08C379F0710
:104DD00008F0D6C0FE01E952FF4F8081918121E0A9
:104DE0008638920708F0CCC0FE01EB52FF4F80815D
:104DF0009181E1E08C329E0708F0C2C0FE01ED52C5
:104E0000FF4F808191818739910508F4B9C080E70F
:104E100090E00E947220FE01ED54FF4F80E090E090
:104E2000AAEFB3E480839183A283B3838E010155FB
:104E30001F4FFE01ED54FF4F60817181828193818C
:104E400020E030E04AE755E40E941F02DC01CB017C
:104E5000F80180839183A283B383FE01E155FF4F64
:104E6000608171818281938120E030E040E85FE3DE
:104E70000E945504882344F4FE01E355FF4F81E06E
:104E800090E09183808364C0FE01E155FF4F608113
:104E900071818281938120E03FEF4FE757E40E94C8
:104EA000F50318160CF043C0FE01ED54FF4F60816E
:104EB00071818281938120E030E040E251E40E94E0
:104EC0001F02DC01CB018E0103551F4FBC01CD0138
:104ED0000E944900DC01CB01F801918380831FC04F
:104EE000FE01E555FF4F80E991E091838083FE014B
:104EF000E555FF4F808191810197F1F7FE01E5555E
:104F0000FF4F91838083DE01A355BF4FFE01E35520
:104F1000FF4F80819181019711969C938E93FE01A2
:104F2000E355FF4F808191810097D1F644CD8E01EA
:104F300003551F4FFE01E155FF4F60817181828152
:104F400093810E944900DC01CB01F80191838083A9
:104F5000DE01A755BF4FFE01E355FF4F80819181D0
:104F600011969C938E93FE01E755FF4F80819181AE
:104F70000197F1F7FE01E755FF4F918380831BCD29
:104F8000FE01E552FF4F808191818234910508F442
:104F9000E0C0FE01E752FF4F80819181F1E08D3743
:104FA0009F0708F4D6C0FE01E952FF4F808191812E
:104FB00021E08638920708F0CCC0FE01EB52FF4F8B
:104FC00080819181E1E08D329E0708F4C2C0FE012C
:104FD000ED52FF4F808191818739910508F4B9C066
:104FE00089E790E00E947220FE01EB55FF4F80E0C0
:104FF00090E0AAEFB3E480839183A283B3838E0110
:105000000F551F4FFE01EB55FF4F6081718182816B
:10501000938120E030E04AE755E40E941F02DC0162
:10502000CB01F80180839183A283B383FE01EF5506
:10503000FF4F608171818281938120E030E040E800
:105040005FE30E945504882344F4FE01E156FF4FBC
:1050500081E090E09183808364C0FE01EF55FF4FB3
:10506000608171818281938120E03FEF4FE757E4B7
:105070000E94F50318160CF043C0FE01EB55FF4FDC
:10508000608171818281938120E030E040E251E4CF
:105090000E941F02DC01CB018E0101561F4FBC0193
:1050A000CD010E944900DC01CB01F801918380838E
:1050B0001FC0FE01E356FF4F80E991E0918380839A
:1050C000FE01E356FF4F808191810197F1F7FE01C8
:1050D000E356FF4F91838083DE01A156BF4FFE014F
:1050E000E156FF4F80819181019711969C938E9399
:1050F000FE01E156FF4F808191810097D1F65BCC94
:105100008E0101561F4FFE01EF55FF4F60817181E7
:10511000828193810E944900DC01CB01F8019183D7
:105120008083DE01A556BF4FFE01E156FF4F80810F
:10513000918111969C938E93FE01E556FF4F8081DD
:1051400091810197F1F7FE01E556FF4F918380832E
:1051500032CCFE01E552FF4F80819181823491056E
:1051600008F4E0C0FE01E752FF4F80819181F1E039
:105170008C379F0708F0D6C0FE01E952FF4F8081AF
:10518000918121E08738920708F4CCC0FE01EB52F0
:10519000FF4F80819181E1E08C329E0708F0C2C010
:1051A000FE01ED52FF4F808191818739910508F40E
:1051B000B9C08CE790E00E947220FE01E956FF4FD3
:1051C00080E090E0AAEFB3E480839183A283B3836D
:1051D0008E010D561F4FFE01E956FF4F6081718110
:1051E0008281938120E030E04AE755E40E941F026B
:1051F000DC01CB01F80180839183A283B383FE019C
:10520000ED56FF4F608171818281938120E030E013
:1052100040E85FE30E945504882344F4FE01EF5602
:10522000FF4F81E090E09183808364C0FE01ED56E2
:10523000FF4F608171818281938120E03FEF4FE7D2
:1052400057E40E94F50318160CF043C0FE01E9561E
:10525000FF4F608171818281938120E030E040E2E4
:1052600051E40E941F02DC01CB018E010F561F4F3B
:10527000BC01CD010E944900DC01CB01F801918302
:1052800080831FC0FE01E157FF4F80E991E09183C9
:105290008083FE01E157FF4F808191810197F1F7F3
:1052A000FE01E157FF4F91838083DE01AF56BF4F70
:1052B000FE01EF56FF4F80819181019711969C93DB
:1052C0008E93FE01EF56FF4F808191810097D1F6BA
:1052D00072CB8E010F561F4FFE01ED56FF4F6081BE
:1052E0007181828193810E944900DC01CB01F80128
:1052F00091838083DE01A357BF4FFE01EF56FF4F1E
:105300008081918111969C938E93FE01E357FF4F0C
:10531000808191810197F1F7FE01E357FF4F91835F
:10532000808349CBFE01E552FF4F8081918181341A
:10533000910508F0E0C0FE01E752FF4F80819181A6
:10534000F1E08D379F0708F4D6C0FE01E952FF4F08
:105350008081918121E08738920708F4CCC0FE015A
:10536000EB52FF4F80819181E1E08D329E0708F47E
:10537000C2C0FE01ED52FF4F8081918186399105B7
:1053800008F0B9C08DE890E00E947220FE01E75756
:10539000FF4F80E090E0AAEFB3E480839183A28383
:1053A000B3838E010B571F4FFE01E757FF4F6081FC
:1053B00071818281938120E030E04AE755E40E94C8
:1053C0001F02DC01CB01F80180839183A283B383A8
:1053D000FE01EB57FF4F608171818281938120E054
:1053E00030E040E85FE30E945504882344F4FE0166
:1053F000ED57FF4F81E090E09183808364C0FE0110
:10540000EB57FF4F608171818281938120E03FEFF4
:105410004FE757E40E94F50318160CF043C0FE0155
:10542000E757FF4F608171818281938120E030E0F6
:1054300040E251E40E941F02DC01CB018E010D57B6
:105440001F4FBC01CD010E944900DC01CB01F801D6
:10545000918380831FC0FE01EF57FF4F80E991E0E9
:1054600091838083FE01EF57FF4F808191810197E7
:10547000F1F7FE01EF57FF4F91838083DE01AD57B7
:10548000BF4FFE01ED57FF4F80819181019711962B
:105490009C938E93FE01ED57FF4F80819181009781
:1054A000D1F689CA8E010D571F4FFE01EB57FF4FF2
:1054B00060817181828193810E944900DC01CB016E
:1054C000F80191838083DE01A158BF4FFE01ED57A3
:1054D000FF4F8081918111969C938E93FE01E1583C
:1054E000FF4F808191810197F1F7FE01E158FF4F55
:1054F0009183808360CAFE01E552FF4F80819181D4
:105500008134910508F0E0C0FE01E752FF4F808131
:105510009181F1E08C379F0708F0D6C0FE01E95277
:10552000FF4F8081918121E08738920708F4CCC039
:10553000FE01EB52FF4F80819181E1E08D329E07A9
:1055400008F4C2C0FE01ED52FF4F8081918187397E
:10555000910508F4B9C080E990E00E947220FE0134
:10556000E558FF4F80E090E0AAEFB3E48083918399
:10557000A283B3838E0109581F4FFE01E558FF4FE8
:10558000608171818281938120E030E04AE755E4B7
:105590000E941F02DC01CB01F80180839183A2836A
:1055A000B383FE01E958FF4F60817181828193814D
:1055B00020E030E040E85FE30E945504882344F493
:1055C000FE01EB58FF4F81E090E09183808364C03F
:1055D000FE01E958FF4F608171818281938120E053
:1055E0003FEF4FE757E40E94F50318160CF043C055
:1055F000FE01E558FF4F608171818281938120E037
:1056000030E040E251E40E941F02DC01CB018E0138
:105610000B581F4FBC01CD010E944900DC01CB019A
:10562000F801918380831FC0FE01ED58FF4F80E990
:1056300091E091838083FE01ED58FF4F808191813D
:105640000197F1F7FE01ED58FF4F91838083DE0152
:10565000AB58BF4FFE01EB58FF4F808191810197FE
:1056600011969C938E93FE01EB58FF4F80819181A0
:105670000097D1F6A0C98E010B581F4FFE01E958C3
:10568000FF4F60817181828193810E944900DC011A
:10569000CB01F80191838083DE01AF58BF4FFE013B
:1056A000EB58FF4F8081918111969C938E93FE0160
:1056B000EF58FF4F808191810197F1F7FE01EF587C
:1056C000FF4F9183808377C9FE01E552FF4F8081B0
:1056D00091818234910508F4E0C0FE01E752FF4F4A
:1056E00080819181F1E08D379F0708F4D6C0FE01DB
:1056F000E952FF4F8081918121E08738920708F4B9
:10570000CCC0FE01EB52FF4F80819181E1E08D32F0
:105710009E0708F4C2C0FE01ED52FF4F80819181C7
:105720008739910508F4B9C084E990E00E9472209D
:10573000FE01E359FF4F80E090E0AAEFB3E48083DD
:105740009183A283B3838E0107591F4FFE01E35952
:10575000FF4F608171818281938120E030E04AE7D0
:1057600055E40E941F02DC01CB01F8018083918384
:10577000A283B383FE01E759FF4F6081718182816B
:10578000938120E030E040E85FE30E9455048823E5
:1057900044F4FE01E959FF4F81E090E0918380835A
:1057A00064C0FE01E759FF4F60817181828193815E
:1057B00020E03FEF4FE757E40E94F50318160CF086
:1057C00043C0FE01E359FF4F608171818281938163
:1057D00020E030E040E251E40E941F02DC01CB01F6
:1057E0008E0109591F4FBC01CD010E944900DC0107
:1057F000CB01F801918380831FC0FE01EB59FF4F5D
:1058000080E991E091838083FE01EB59FF4F808115
:1058100091810197F1F7FE01EB59FF4F918380834E
:10582000DE01A959BF4FFE01E959FF4F80819181E7
:10583000019711969C938E93FE01E959FF4F808149
:1058400091810097D1F6B7C88E0109591F4FFE010B
:10585000E759FF4F60817181828193810E944900E5
:10586000DC01CB01F80191838083DE01AD59BF4F8C
:10587000FE01E959FF4F8081918111969C938E938F
:10588000FE01ED59FF4F808191810197F1F7FE01F3
:10589000ED59FF4F918380838EC8FE01E552FF4F83
:1058A000808191818234910508F4E2C0FE01E752C3
:1058B000FF4F80819181F1E08C379F0708F0D8C0BD
:1058C000FE01E952FF4F8081918121E086389207E5
:1058D00008F0CEC0FE01EB52FF4F80819181E1E0E4
:1058E0008D329E0708F4C4C0FE01ED52FF4F808147
:1058F00091818739910508F4BBC088E990E00E9446
:105900007220FE01E15AFF4F80E090E0AAEFB3E47D
:1059100080839183A283B3838E01055A1F4FFE01BA
:10592000E15AFF4F608171818281938120E030E0F4
:105930004AE755E40E941F02DC01CB01F801808395
:105940009183A283B383FE01E55AFF4F6081718189
:105950008281938120E030E040E85FE30E945504BB
:10596000882344F4FE01E75AFF4F81E090E09183E1
:10597000808365C0FE01E55AFF4F6081718182819D
:10598000938120E03FEF4FE757E40E94F50318169C
:105990000CF044C0FE01E15AFF4F608171818281A9
:1059A000938120E030E040E251E40E941F02DC01DC
:1059B000CB018E01075A1F4FBC01CD010E94490047
:1059C000DC01CB01F801918380831FC0FE01E95AFD
:1059D000FF4F80E991E091838083FE01E95AFF4FF8
:1059E000808191810197F1F7FE01E95AFF4F918380
:1059F0008083DE01A75ABF4FFE01E75AFF4F808127
:105A00009181019711969C938E93FE01E75AFF4F67
:105A1000808191810097D1F60C94DB248E01075A86
:105A20001F4FFE01E55AFF4F608171818281938192
:105A30000E944900DC01CB01F80191838083DE01E3
:105A4000AB5ABF4FFE01E75AFF4F808191811196FB
:105A50009C938E93FE01EB5AFF4F808191810197B9
:105A6000F1F7FE01EB5AFF4F918380830C94DB2406
:105A7000FE01E552FF4F808191818134910508F04C
:105A8000E2C0FE01E752FF4F80819181F1E08D3746
:105A90009F0708F4D8C0FE01E952FF4F8081918131
:105AA00021E08738920708F4CEC0FE01EB52FF4F89
:105AB00080819181E1E08D329E0708F4C4C0FE012F
:105AC000ED52FF4F808191818739910508F4BBC069
:105AD00080EA90E00E947220FE01EF5AFF4F80E0C2
